:100000000C9462000C948A000C948A000C948A0070
:100010000C948A000C948A000C948A000C948A0038
:100020000C948A000C948A000C948A000C948A0028
:100030000C948A000C948A000C948A000C948A0018
:100040000C94AA050C948A000C941A060C94F405DE
:100050000C948A000C948A000C948A000C948A00F8
:100060000C948A000C948A000000000024002700F1
:100070002A0000000000250028002B0000000008D6
:10008000000201000003040700000000000000005F
:1000900000000000230026002900040404040404D6
:1000A0000404020202020202030303030303010227
:1000B00004081020408001020408102001020408F6
:1000C00010204C0611241FBECFEFD8E0DEBFCDBFFD
:1000D00011E0A0E0B1E0ECE5F6E102C005900D9280
:1000E000A433B107D9F723E0A4E3B1E001C01D9226
:1000F000A43BB207E1F710E0C2E6D0E004C02197CC
:10010000FE010E94260BC136D107C9F70E94D30613
:100110000C942C0B0C9400000895833081F028F48B
:10012000813099F08230A9F008958730A9F08830A5
:10013000C9F08430B1F4809180008F7D03C080913C
:1001400080008F7780938000089584B58F7784BD79
:10015000089584B58F7DFBCF8091B0008F77809319
:10016000B00008958091B0008F7DF9CF1F93CF9399
:10017000DF93282F30E0F901E458FF4F8491F90113
:10018000E255FF4FD491F901E656FF4FC491CC23BD
:10019000A9F0162F81110E948D00EC2FF0E0EE0FD8
:1001A000FF1FEE58FF4FA591B4918FB7F894EC91D3
:1001B000111108C0D095DE23DC938FBFDF91CF9162
:1001C0001F910895DE2BF8CFCF93DF9390E0FC01D1
:1001D000E255FF4F249186569F4FFC01849188235E
:1001E000D1F090E0880F991FFC01E859FF4FA591CD
:1001F000B491FC01EE58FF4FC591D49161110EC02E
:100200009FB7F8948C91E22FE0958E238C932881F0
:10021000E223E8839FBFDF91CF9108958FB7F894D1
:10022000EC91E22BEC938FBFF6CF3FB7F89480911F
:10023000480290914902A0914A02B0914B0226B522
:10024000A89B05C02F3F19F00196A11DB11D3FBF0E
:10025000BA2FA92F982F8827BC01CD01620F711DDD
:10026000811D911D42E0660F771F881F991F4A95D7
:10027000D1F708958F929F92AF92BF92CF92DF9263
:10028000EF92FF924B015C010E9415016B017C0112
:100290000E9415016C197D098E099F09683E734003
:1002A00081059105A8F321E0821A9108A108B108FF
:1002B00088EEC80E83E0D81EE11CF11C8114910465
:1002C000A104B10429F7FF90EF90DF90CF90BF9089
:1002D000AF909F908F900895AF92BF92CF92DF9290
:1002E000EF92FF920F931F93CF93DF936C017B01EB
:1002F0008B01040F151FEB015E01AE18BF08C0177C
:10030000D10759F06991D601ED91FC910190F081EE
:10031000E02DC6010995892B79F7C501DF91CF91B1
:100320001F910F91FF90EF90DF90CF90BF90AF9013
:100330000895FC01538D448D252F30E0842F90E0EB
:10034000821B930B541710F0CF96089501970895D0
:10035000FC01918D828D981761F0A28DAE0FBF2F99
:10036000B11D5D968C91928D9F5F9F73928F90E0EF
:1003700008958FEF9FEF0895FC01918D828D98175E
:1003800031F0828DE80FF11D858D90E008958FEF9B
:100390009FEF0895FC01918D228D892F90E0805C64
:1003A0009F4F821B91098F73992708958CE492E0E7
:1003B0000E94CA0121E0892B09F420E0822F0895D0
:1003C000FC01A48DA80FB92FB11DA35ABF4F2C91CA
:1003D000848D90E001968F739927848FA689B789C1
:1003E0002C93A089B1898C91837080648C93938DB8
:1003F000848D981306C00288F389E02D80818F7D5B
:1004000080830895EF92FF920F931F93CF93DF9312
:10041000EC0181E0888F9B8D8C8D98131AC0E88940
:10042000F989808185FF15C09FB7F894EE89FF890F
:100430006083E889F98980818370806480839FBFAD
:1004400081E090E0DF91CF911F910F91FF90EF90AD
:100450000895F62E0B8D10E00F5F1F4F0F731127BD
:10046000E02E8C8D8E110CC00FB607FCFACFE889F8
:10047000F989808185FFF5CFCE010E94E001F1CF9F
:10048000EB8DEC0FFD2FF11DE35AFF4FF0829FB76C
:10049000F8940B8FEA89FB8980818062CFCFCF935C
:1004A000DF93EC01888D8823B9F0AA89BB89E8899C
:1004B000F9898C9185FD03C0808186FD0DC00FB642
:1004C00007FCF7CF8C9185FFF2CF808185FFEDCFC0
:1004D000CE010E94E001E9CFDF91CF910895909184
:1004E0003F02892F8F70883018F481E0903308F034
:1004F00080E0089580913F0290914002E82FEF70D4
:1005000024E0E29FF0011124EE5FFE4F4081518113
:10051000628173814093C8015093C9016093CA01FD
:100520007093CB0124E0969587952A95E1F78F701B
:10053000813041F018F0823039F0089586E08093E0
:10054000CC01089586E3FBCF86E2F9CFCF93DF930A
:10055000EFE7F0E08491E1EBF0E0D491EDE9F0E039
:10056000C49170E060E0CC2399F081110E948D006D
:10057000EC2FF0E0EE0FFF1FE057FF4FA591B49175
:10058000EC91ED2391E080E009F490E0692F782F61
:1005900081E0682783E00E94B6008091BB019091C2
:1005A000BC0101969093BC018093BB019093F6012E
:1005B0008093F501809141029091420201969093BF
:1005C000420280934102A895DF91CF910895CF9385
:1005D000DF9361E084E00E94B6006AE070E080E0B2
:1005E00090E00E943A0181E480937C0080917A003F
:1005F000806480937A0080917A0086FDFCCFC09160
:10060000780060917900D62F60E084E00E94B60007
:10061000BE01DD0F880B990B0E94EC0920E030E051
:1006200040EA50E40E94780A20E030EC4FE754E4BE
:100630000E94420928EE3BE04EE352E40E94780A11
:1006400020E030E048EC52E40E94780A0E94B409AD
:10065000CB01DF91CF9108950F931F93CF93DF9339
:10066000D82F61E08091C1010E94B6000BE311E038
:10067000C0E08091C6019091C701DC01ED91FC9131
:10068000CD1749F0D8016D918D010190F081E02DD9
:100690000995CF5FEECF0680F781E02D0995809117
:1006A000390190913A018230910538F0880F991FF5
:1006B000880F991F05970197F1F760E08091C101BC
:1006C000DF91CF911F910F910C94B600EBE3F1E015
:1006D00090E02FEF3FEF981791F04191242748E0E9
:1006E000B9016170772736952795672B21F051E086
:1006F000252750EA3527415099F79F5FECCF922F7D
:10070000832F08952091BF013091C0012F5F3F4F8B
:100710003093C0012093BF0190913801911115C011
:100720009091370190933B0190913601906890939E
:100730003C0180933D0183E00E94660390933E015B
:1007400080933F0185E00C942C0308950F931F9331
:10075000CF93DF938091C6019091C701DC01ED91A9
:10076000FC910084F185E02D0995892B09F4D5C011
:1007700010E0C0E08091C6019091C701DC01ED91CD
:10078000FC910084F185E02D0995892B41F1809140
:10079000C6019091C701DC01ED91FC910284F385C3
:1007A000E02D112381F0099580913401909135015C
:1007B00082309105F8F2880F991F880F991F0597CD
:1007C0000197F1F7D7CF11E0C03809F010E0099593
:1007D000EC2FF0E0E55CFE4F8083CF5FE5CF112387
:1007E00081F08091BF019091C0019C012F5F3F4F2C
:1007F0003093C0012093BF01DF91CF911F910F91E2
:100800000895C83008F4E1C080913B01882309F4C1
:100810006BC010923801D0913701D81729F0809120
:100820003801882309F479C00C2F10E08EEF8C0F6B
:100830000E9466039801255C3E4FF9013297408182
:1008400021503109F9012081342F8217930709F0D3
:10085000C0C060913C016093360120913D01309110
:100860003E0132272327322780913F01909140019A
:10087000982789279827AC01420F531FC091380150
:10088000C11152C0633009F04FC0E091C401F09132
:10089000C5012E173F0708F045C0E417F507D0F152
:1008A000880FC5E0C80FD0933B0180933D01A09114
:1008B000C201B091C301E22FF0E0E417F507C0F4E4
:1008C000EE0FFF1FEA0FFB1F90813181E62FF0E052
:1008D000E55CFE4F3083E1E0E60FF0E0E55CFE4FC3
:1008E00090836E5F2F5FE7CF91E09093380193CFB5
:1008F0008D5F0E9466032C2F30E0255C3E4FF9018E
:100900003297908321503109D9018C938C2F0E940A
:100910002C0303C083E00E9482038091BF01909169
:10092000C0016ACF82E0F7CF6630E1F44091C401A4
:100930005091C50124173507A8F7220F331FE09106
:10094000C201F091C301E20FF31F9183808386E01F
:100950000E9466039093410180934201C111DDCF53
:1009600088E0D5CF603179F58091410109501109B6
:100970008017110671F58091C4019091C501281767
:10098000390780F68417950728F26091C2017091AB
:10099000C30137E0822F90E084179507C0F6A32F9C
:1009A000B0E0880F991FFB01E80FF91FA55CBE4F4F
:1009B0008C9111969C918927982789279183808310
:1009C0003E5F2F5FE7CF81E0A6CFC150C73008F070
:1009D000A4CF8091BF019091C00101969093C00176
:1009E0008093BF019ACF0C94A6030E94D601811177
:1009F0000C94A6030895CF92DF92EF92FF920F938B
:100A00001F93CF93DF936B017C01042F122FC091B2
:100A1000C601D091C701E889F98982E08083C114B9
:100A200081EED806E104F104A1F060E079E08DE305
:100A300090E0A70196010E94E50A21503109410981
:100A400051095695479537952795211580E1380727
:100A500098F0E889F989108260E874E88EE190E006
:100A6000A70196010E94E50A215031094109510967
:100A70005695479537952795EC85FD853083EE850E
:100A8000FF852083188EEC89FD890083EA89FB8924
:100A9000808180618083EA89FB898081886080838E
:100AA000EA89FB89808180688083EA89FB8980816B
:100AB0008F7D80831093370181E0C8168BE4D806C0
:100AC000E104F104CCF08EEE92E090933501809336
:100AD00034018091340190913501880F991F9093D2
:100AE0003A0180933901DF91CF911F910F91FF90CF
:100AF000EF90DF90CF90089560E275EC8BEF90E07F
:100B0000A70196010E94070B309335012093340111
:100B1000E0CF1F93CF93DF93EC0118818EE190E03B
:100B20000E942C09181729F0612F8EE190E00E9495
:100B3000340919818FE190E00E942C09181729F0DF
:100B4000612F8FE190E00E943409CE01DF91CF91B7
:100B50001F9108951F920F920FB60F9211242F9399
:100B60003F938F939F93AF93BF9380914402909153
:100B70004502A0914602B09147023091430223E022
:100B8000230F2D3758F50196A11DB11D2093430267
:100B90008093440290934502A0934602B09347028B
:100BA0008091480290914902A0914A02B0914B0273
:100BB0000196A11DB11D8093480290934902A09314
:100BC0004A02B0934B02BF91AF919F918F913F9199
:100BD0002F910F900FBE0F901F90189526E8230FAE
:100BE0000296A11DB11DD2CF1F920F920FB60F9288
:100BF00011242F933F934F935F936F937F938F9322
:100C00009F93AF93BF93EF93FF938CE492E00E9486
:100C1000E001FF91EF91BF91AF919F918F917F91F3
:100C20006F915F914F913F912F910F900FBE0F9059
:100C30001F9018951F920F920FB60F9211242F93A9
:100C40008F939F93EF93FF93E0915C02F0915D028D
:100C50008081E0916202F091630282FD1BC090816D
:100C6000809165028F5F8F7320916602821741F039
:100C7000E0916502F0E0E45BFD4F958F80936502A3
:100C8000FF91EF919F918F912F910F900FBE0F9039
:100C90001F9018958081F4CFECE4F2E01382128269
:100CA00088EE93E0A0E0B0E084839583A683B783C9
:100CB00086E291E09183808385EC90E0958784873C
:100CC00084EC90E09787868780EC90E0918B808B16
:100CD00081EC90E0938B828B82EC90E0958B848BFF
:100CE00086EC90E0978B868B118E128E138E148E6D
:100CF00060E08AE00E94E400E8EBF0E0E491ACEF11
:100D0000B2E0EC93E4EAF0E0E491F0E0EE0FFF1FD4
:100D1000E057FF4F8591949112969C938E93119773
:100D20001B961C921B971D961C921D971C961C923D
:100D30001C971A961C921A9719961C921997189636
:100D40001C92189717961C92179716961C92169736
:100D500015961C92159714961C92149713961C9234
:100D60001397E9EEF2E08CE890E0928B818BB683EA
:100D7000A5831482108289E0818381E0828383834A
:100D8000EAE0F3E01082118A12A213AA10924E0335
:100D900010925F03109270031092810310929203DD
:100DA0001092A3030895CF93DF9300D0CDB7DEB7A1
:100DB000789484B5826084BD84B5816084BD85B536
:100DC000826085BD85B5816085BD80916E00816042
:100DD00080936E00109281008091810082608093E8
:100DE00081008091810081608093810080918000EA
:100DF0008160809380008091B10084608093B10015
:100E00008091B00081608093B00080917A0084600E
:100E100080937A0080917A00826080937A0080913A
:100E20007A00816080937A0080917A008068809354
:100E30007A001092C10014BE0FB6F894A895809164
:100E40006000886180936000109260000FBE68E8C7
:100E500073E180E090E00E943A0188E199E20FB6E8
:100E6000F894A895809360000FBE909360008AE08C
:100E700090E00E942C0990E08F3F910509F09CC101
:100E80001092BE011092BD016091BD018AE090E018
:100E90000E9434098091BD019091BE019093F001B0
:100EA0008093EF0184E090E090933E0280933D02B6
:100EB00081E090E00E942C098093CD018F3F09F0E2
:100EC00081C164E181E090E00E94340984E190E016
:100ED0009093F2018093F1018093CD0162E370E081
:100EE00080E090E00E943A018EE190E00E942C099F
:100EF000809300018FE190E00E942C098093010112
:100F000080910001909101019093400280933F02F3
:100F1000019621F00E946F02811116C062E370E019
:100F200080E090E00E943A0103E010E01A83098318
:100F3000CE0101960E9489051093400200933F0262
:100F400010930101009300010E947A0282E190E077
:100F50009093EA018093E90185E190E09093EC01A0
:100F60008093EB0184E190E00E942C098093CE01F4
:100F70008F3F19F481E08093CE018091CE0190E003
:100F80009093EE018093ED0161E083E00E94E40024
:100F900061E084E00E94E40060E08FE00E94E400F1
:100FA00060E084E00E94B6000E94E7029093E801AE
:100FB0008093E701EAE0F3E090E080E020812223E3
:100FC00009F41EC1019671968A309105B9F78CE437
:100FD00092E09093C7018093C60189E390E09093DB
:100FE000C5018093C4018FEC91E09093C30180937D
:100FF000C20182E08093C10161E00E94E40060E0F0
:1010000082E00E94B6001092C0011092BF01609170
:10101000C8017091C9018091CA019091CB012091C2
:10102000CD014091CC010E94FB046091ED017091D3
:10103000EE018091CE018617170631F06093CE0144
:1010400084E190E00E9434098091F1019091F201D5
:1010500002978E37910530F084E190E09093F20191
:101060008093F1016091F1017091F2018091CD01C5
:1010700086171706A1F081E090E00E9434092091C4
:10108000F1012093CD016091C8017091C901809157
:10109000CA019091CB014091CC010E94FB040091C8
:1010A0003F0210914002E0900001F09001010E1506
:1010B0001F05F9F00E946F02882309F489C010937C
:1010C0000101009300011A830983CE0101960E9459
:1010D00089050E947A026091C8017091C9018091CE
:1010E000CA019091CB012091CD014091CC010E9489
:1010F000FB048091410290914202CC9750F00E94F3
:10110000E7029093E8018093E70110924202109267
:1011100041028FB7F894C0904402D0904502E0900D
:101120004602F09047028FBF0AE013E0D8018C918D
:101130008823A1F11B964D915D916D917C911E9735
:1011400046015701841A950AA60AB70A11964D91CD
:101150005D916D917C91149784169506A606B7064D
:1011600070F08130D1F18230E9F1F801C386D48684
:10117000E586F686878590890196908B8787D801CA
:1011800015968D919C91169797FD08C01F962D91ED
:101190003C915097281739070CF01C920F5E1F4F97
:1011A000B3E0043B1B0711F60E94D601882309F423
:1011B0003CCF0E94A60339CF01969093BE01809345
:1011C000BD0162CE90E09093F2018093F10186CE52
:1011D000F0924002E0923F028CCF1996ED91FC9183
:1011E0000995C3CF61E0F8018085811160E0D801E5
:1011F00018966C93189717968C910E94B600B5CFED
:1012000021E1289FF001299FF00D1124E65FFC4F9A
:1012100081E0808388EE93E0A0E0B0E08183928358
:10122000A383B4838FEF9FEF9683858386EA92E052
:10123000928781872FB7F89480914402909145025C
:10124000A0914602B09147022FBF83879487A5875C
:10125000B687108A1786BBCEF999FECF92BD81BDA5
:10126000F89A992780B50895262FF999FECF1FBACD
:1012700092BD81BD20BD0FB6F894FA9AF99A0FBEBF
:10128000019608950E9456090C943E0A0E94370A5E
:1012900058F00E94300A40F029F45F3F29F00C9486
:1012A000270A51110C94720A0C942D0A0E944F0ABD
:1012B00068F39923B1F3552391F3951B550BBB2785
:1012C000AA2762177307840738F09F5F5F4F220FCA
:1012D000331F441FAA1FA9F335D00E2E3AF0E0E8C1
:1012E00032D091505040E695001CCAF72BD0FE2F0B
:1012F00029D0660F771F881FBB1F2617370748079F
:10130000AB07B0E809F0BB0B802DBF01FF27935856
:101310005F4F3AF09E3F510578F00C94270A0C94E9
:10132000720A5F3FE4F3983ED4F38695779567950C
:10133000B795F7959F5FC9F7880F911D969587958B
:1013400097F90895E1E0660F771F881FBB1F6217AA
:1013500073078407BA0720F0621B730B840BBA0B68
:10136000EE1F88F7E09508950E94BB096894B111BB
:101370000C94720A08950E94570A88F09F5798F0BB
:10138000B92F9927B751B0F0E1F0660F771F881F8A
:10139000991F1AF0BA95C9F714C0B13091F00E94A4
:1013A000710AB1E008950C94710A672F782F88278D
:1013B000B85F39F0B93FCCF3869577956795B395CB
:1013C000D9F73EF490958095709561957F4F8F4F3A
:1013D0009F4F0895E89409C097FB3EF4909580953F
:1013E000709561957F4F8F4F9F4F9923A9F0F92FEB
:1013F00096E9BB279395F695879577956795B79569
:10140000F111F8CFFAF4BB0F11F460FF1BC06F5F4E
:101410007F4F8F4F9F4F16C0882311F096E911C060
:10142000772321F09EE8872F762F05C0662371F081
:1014300096E8862F70E060E02AF09A95660F771F95
:10144000881FDAF7880F9695879597F9089597F989
:101450009F6780E870E060E008959FEF80EC08955A
:1014600000240A9416161706180609060895002483
:101470000A9412161306140605060895092E0394FD
:10148000000C11F4882352F0BB0F40F4BF2B11F471
:1014900060FF04C06F5F7F4F8F4F9F4F089557FDD0
:1014A0009058440F551F59F05F3F71F04795880FD2
:1014B00097FB991F61F09F3F79F087950895121669
:1014C00013061406551FF2CF4695F1DF08C0161615
:1014D00017061806991FF1CF8695710561050894C6
:1014E0000895E894BB2766277727CB0197F90895DD
:1014F0000E948B0A0C943E0A0E94300A38F00E9427
:10150000370A20F0952311F00C94270A0C942D0A29
:1015100011240C94720A0E944F0A70F3959FC1F334
:10152000950F50E0551F629FF001729FBB27F00D91
:10153000B11D639FAA27F00DB11DAA1F649F6627E6
:10154000B00DA11D661F829F2227B00DA11D621F35
:10155000739FB00DA11D621F839FA00D611D221FEF
:10156000749F3327A00D611D231F849F600D211DD3
:10157000822F762F6A2F11249F5750409AF0F1F056
:1015800088234AF0EE0FFF1FBB1F661F771F881FBF
:1015900091505040A9F79E3F510580F00C94270AC6
:1015A0000C94720A5F3FE4F3983ED4F386957795E6
:1015B0006795B795F795E7959F5FC1F7FE2B880F65
:1015C000911D9695879597F90895A1E21A2EAA1B69
:1015D000BB1BFD010DC0AA1FBB1FEE1FFF1FA217E3
:1015E000B307E407F50720F0A21BB30BE40BF50BE0
:1015F000661F771F881F991F1A9469F76095709569
:10160000809590959B01AC01BD01CF010895052EF9
:1016100097FB1EF400940E941E0B57FD07D00E94FA
:10162000E50A07FC03D04EF40C941E0B5095409530
:10163000309521953F4F4F4F5F4F0895909580957E
:10164000709561957F4F8F4F9F4F0895EE0FFF1F4D
:0C1650000590F491E02D0994F894FFCF70
:10165C000300B004000060090000C01200008025E7
:10166C000000004B00000096000000E1000000C2EA
:10167C0001000000000002026C0199014F02CA0136
:04168C00A801BC01F4
:00000001FF
